{
  "contractName": "RunChainRewards",
  "abi": [
    {
      "inputs": [],
      "stateMutability": "nonpayable",
      "type": "constructor"
    },
    {
      "anonymous": false,
      "inputs": [
        {
          "indexed": true,
          "internalType": "address",
          "name": "funder",
          "type": "address"
        },
        {
          "indexed": false,
          "internalType": "uint256",
          "name": "amount",
          "type": "uint256"
        }
      ],
      "name": "ContractFunded",
      "type": "event"
    },
    {
      "anonymous": false,
      "inputs": [
        {
          "indexed": true,
          "internalType": "address",
          "name": "user",
          "type": "address"
        },
        {
          "indexed": false,
          "internalType": "uint256",
          "name": "points",
          "type": "uint256"
        },
        {
          "indexed": false,
          "internalType": "uint256",
          "name": "ethAmount",
          "type": "uint256"
        }
      ],
      "name": "RewardRedeemed",
      "type": "event"
    },
    {
      "inputs": [
        {
          "internalType": "address",
          "name": "",
          "type": "address"
        }
      ],
      "name": "lastRedemptionTimestamp",
      "outputs": [
        {
          "internalType": "uint256",
          "name": "",
          "type": "uint256"
        }
      ],
      "stateMutability": "view",
      "type": "function"
    },
    {
      "inputs": [],
      "name": "owner",
      "outputs": [
        {
          "internalType": "address",
          "name": "",
          "type": "address"
        }
      ],
      "stateMutability": "view",
      "type": "function"
    },
    {
      "inputs": [
        {
          "internalType": "address",
          "name": "",
          "type": "address"
        }
      ],
      "name": "totalPointsRedeemed",
      "outputs": [
        {
          "internalType": "uint256",
          "name": "",
          "type": "uint256"
        }
      ],
      "stateMutability": "view",
      "type": "function"
    },
    {
      "stateMutability": "payable",
      "type": "receive"
    },
    {
      "inputs": [
        {
          "internalType": "uint256",
          "name": "pointsAmount",
          "type": "uint256"
        }
      ],
      "name": "redeemForEth",
      "outputs": [],
      "stateMutability": "nonpayable",
      "type": "function"
    },
    {
      "inputs": [],
      "name": "getContractBalance",
      "outputs": [
        {
          "internalType": "uint256",
          "name": "",
          "type": "uint256"
        }
      ],
      "stateMutability": "view",
      "type": "function"
    },
    {
      "inputs": [
        {
          "internalType": "uint256",
          "name": "amount",
          "type": "uint256"
        }
      ],
      "name": "withdraw",
      "outputs": [],
      "stateMutability": "nonpayable",
      "type": "function"
    },
    {
      "inputs": [
        {
          "internalType": "address",
          "name": "newOwner",
          "type": "address"
        }
      ],
      "name": "transferOwnership",
      "outputs": [],
      "stateMutability": "nonpayable",
      "type": "function"
    }
  ],
  "bytecode": "0x608060405234801561001057600080fd5b50336000806101000a81548173ffffffffffffffffffffffffffffffffffffffff021916908373ffffffffffffffffffffffffffffffffffffffff160217905550610ca7806100606000396000f3fe6080604052600436106100745760003560e01c80638da5cb5b1161004e5780638da5cb5b1461015f578063cc8ea40d1461018a578063f2fde38b146101b3578063f9e25b3d146101dc576100c9565b80632e1a7d4d146100ce5780636f9fb98a146100f75780637a80a2cb14610122576100c9565b366100c9573373ffffffffffffffffffffffffffffffffffffffff167f0939f6f4877faf071412e527bc4c6d0bd65ad077e52b57334f7765265647a7f1346040516100bf919061078c565b60405180910390a2005b600080fd5b3480156100da57600080fd5b506100f560048036038101906100f091906107d8565b610219565b005b34801561010357600080fd5b5061010c610354565b604051610119919061078c565b60405180910390f35b34801561012e57600080fd5b5061014960048036038101906101449190610863565b61035c565b604051610156919061078c565b60405180910390f35b34801561016b57600080fd5b50610174610374565b604051610181919061089f565b60405180910390f35b34801561019657600080fd5b506101b160048036038101906101ac91906107d8565b610398565b005b3480156101bf57600080fd5b506101da60048036038101906101d59190610863565b61061b565b005b3480156101e857600080fd5b5061020360048036038101906101fe9190610863565b61075b565b604051610210919061078c565b60405180910390f35b60008054906101000a900473ffffffffffffffffffffffffffffffffffffffff1673ffffffffffffffffffffffffffffffffffffffff163373ffffffffffffffffffffffffffffffffffffffff16146102a7576040517f08c379a000000000000000000000000000000000000000000000000000000000815260040161029e9061093d565b60405180910390fd5b804710156102ea576040517f08c379a00000000000000000000000000000000000000000000000000000000081526004016102e1906109a9565b60405180910390fd5b60008054906101000a900473ffffffffffffffffffffffffffffffffffffffff1673ffffffffffffffffffffffffffffffffffffffff166108fc829081150290604051600060405180830381858888f19350505050158015610350573d6000803e3d6000fd5b5050565b600047905090565b60016020528060005260406000206000915090505481565b60008054906101000a900473ffffffffffffffffffffffffffffffffffffffff1681565b60008066038d7ea4c6800083036103bc576032915066038d7ea4c68000905061043c565b6611c37937e0800083036103dd5760c891506611c37937e08000905061043b565b662386f26fc1000083036103ff576101f49150662386f26fc10000905061043a565b6040517f08c379a000000000000000000000000000000000000000000000000000000000815260040161043190610a15565b60405180910390fd5b5b5b8047101561047f576040517f08c379a000000000000000000000000000000000000000000000000000000000815260040161047690610aa7565b60405180910390fd5b42600160003373ffffffffffffffffffffffffffffffffffffffff1673ffffffffffffffffffffffffffffffffffffffff1681526020019081526020016000208190555081600260003373ffffffffffffffffffffffffffffffffffffffff1673ffffffffffffffffffffffffffffffffffffffff16815260200190815260200160002060008282546105129190610af6565b9250508190555060003373ffffffffffffffffffffffffffffffffffffffff168260405161053f90610b5b565b60006040518083038185875af1925050503d806000811461057c576040519150601f19603f3d011682016040523d82523d6000602084013e610581565b606091505b50509050806105c5576040517f08c379a00000000000000000000000000000000000000000000000000000000081526004016105bc90610bbc565b60405180910390fd5b3373ffffffffffffffffffffffffffffffffffffffff167fc37465ff193f774057dca6e5213393c0be6539811e14d27361449666b618ecff848460405161060d929190610bdc565b60405180910390a250505050565b60008054906101000a900473ffffffffffffffffffffffffffffffffffffffff1673ffffffffffffffffffffffffffffffffffffffff163373ffffffffffffffffffffffffffffffffffffffff16146106a9576040517f08c379a00000000000000000000000000000000000000000000000000000000081526004016106a09061093d565b60405180910390fd5b600073ffffffffffffffffffffffffffffffffffffffff168173ffffffffffffffffffffffffffffffffffffffff1603610718576040517f08c379a000000000000000000000000000000000000000000000000000000000815260040161070f90610c51565b60405180910390fd5b806000806101000a81548173ffffffffffffffffffffffffffffffffffffffff021916908373ffffffffffffffffffffffffffffffffffffffff16021790555050565b60026020528060005260406000206000915090505481565b6000819050919050565b61078681610773565b82525050565b60006020820190506107a1600083018461077d565b92915050565b600080fd5b6107b581610773565b81146107c057600080fd5b50565b6000813590506107d2816107ac565b92915050565b6000602082840312156107ee576107ed6107a7565b5b60006107fc848285016107c3565b91505092915050565b600073ffffffffffffffffffffffffffffffffffffffff82169050919050565b600061083082610805565b9050919050565b61084081610825565b811461084b57600080fd5b50565b60008135905061085d81610837565b92915050565b600060208284031215610879576108786107a7565b5b60006108878482850161084e565b91505092915050565b61089981610825565b82525050565b60006020820190506108b46000830184610890565b92915050565b600082825260208201905092915050565b7f4f6e6c79206f776e65722063616e2063616c6c20746869732066756e6374696f60008201527f6e00000000000000000000000000000000000000000000000000000000000000602082015250565b60006109276021836108ba565b9150610932826108cb565b604082019050919050565b600060208201905081810360008301526109568161091a565b9050919050565b7f496e73756666696369656e742062616c616e6365000000000000000000000000600082015250565b60006109936014836108ba565b915061099e8261095d565b602082019050919050565b600060208201905081810360008301526109c281610986565b9050919050565b7f496e76616c696420726564656d7074696f6e20616d6f756e7400000000000000600082015250565b60006109ff6019836108ba565b9150610a0a826109c9565b602082019050919050565b60006020820190508181036000830152610a2e816109f2565b9050919050565b7f436f6e74726163742068617320696e73756666696369656e742062616c616e6360008201527f6500000000000000000000000000000000000000000000000000000000000000602082015250565b6000610a916021836108ba565b9150610a9c82610a35565b604082019050919050565b60006020820190508181036000830152610ac081610a84565b9050919050565b7f4e487b7100000000000000000000000000000000000000000000000000000000600052601160045260246000fd5b6000610b0182610773565b9150610b0c83610773565b9250828201905080821115610b2457610b23610ac7565b5b92915050565b600081905092915050565b50565b6000610b45600083610b2a565b9150610b5082610b35565b600082019050919050565b6000610b6682610b38565b9150819050919050565b7f455448207472616e73666572206661696c656400000000000000000000000000600082015250565b6000610ba66013836108ba565b9150610bb182610b70565b602082019050919050565b60006020820190508181036000830152610bd581610b99565b9050919050565b6000604082019050610bf1600083018561077d565b610bfe602083018461077d565b9392505050565b7f4e6577206f776e65722063616e6e6f74206265207a65726f2061646472657373600082015250565b6000610c3b6020836108ba565b9150610c4682610c05565b602082019050919050565b60006020820190508181036000830152610c6a81610c2e565b905091905056fea264697066735822122061f1340a33d6a6bbbbec8530549b5593d35c84d2d12604e5bc36c772c94b702164736f6c63430008130033",
  "immutableReferences": {},
  "source": "// SPDX-License-Identifier: MIT\npragma solidity ^0.8.0;\n\n/**\n * @title RunChainRewards\n * @dev Allows users to redeem points for ETH rewards\n */\ncontract RunChainRewards {\n    address public owner;\n    \n    // Redemption tracking\n    mapping(address => uint256) public lastRedemptionTimestamp;\n    mapping(address => uint256) public totalPointsRedeemed;\n    \n    // Events\n    event RewardRedeemed(address indexed user, uint256 points, uint256 ethAmount);\n    event ContractFunded(address indexed funder, uint256 amount);\n    \n    // Modifiers\n    modifier onlyOwner() {\n        require(msg.sender == owner, \"Only owner can call this function\");\n        _;\n    }\n    \n    constructor() {\n        owner = msg.sender;\n    }\n    \n    /**\n     * @dev Redeems ETH based on points value\n     * @param pointsAmount The amount in ETH to redeem (will convert to appropriate points)\n     */\n    function redeemForEth(uint256 pointsAmount) external {\n        uint256 points;\n        uint256 ethAmount;\n        \n        // Determine which tier was selected based on ETH amount\n        if (pointsAmount == 0.001 ether) {\n            points = 50;\n            ethAmount = 0.001 ether;\n        } else if (pointsAmount == 0.005 ether) {\n            points = 200;\n            ethAmount = 0.005 ether;\n        } else if (pointsAmount == 0.01 ether) {\n            points = 500;\n            ethAmount = 0.01 ether;\n        } else {\n            revert(\"Invalid redemption amount\");\n        }\n        \n        // Check contract has sufficient funds\n        require(address(this).balance >= ethAmount, \"Contract has insufficient balance\");\n        \n        // Update redemption tracking\n        lastRedemptionTimestamp[msg.sender] = block.timestamp;\n        totalPointsRedeemed[msg.sender] += points;\n        \n        // Send ETH to user\n        (bool success, ) = payable(msg.sender).call{value: ethAmount}(\"\");\n        require(success, \"ETH transfer failed\");\n        \n        // Emit event\n        emit RewardRedeemed(msg.sender, points, ethAmount);\n    }\n    \n    /**\n     * @dev Get contract's ETH balance\n     */\n    function getContractBalance() external view returns (uint256) {\n        return address(this).balance;\n    }\n    \n    /**\n     * @dev Allow the owner to withdraw ETH from contract\n     */\n    function withdraw(uint256 amount) external onlyOwner {\n        require(address(this).balance >= amount, \"Insufficient balance\");\n        payable(owner).transfer(amount);\n    }\n    \n    /**\n     * @dev Transfer ownership of the contract\n     */\n    function transferOwnership(address newOwner) external onlyOwner {\n        require(newOwner != address(0), \"New owner cannot be zero address\");\n        owner = newOwner;\n    }\n    \n    /**\n     * @dev Function to receive ETH\n     */\n    receive() external payable {\n        emit ContractFunded(msg.sender, msg.value);\n    }\n}\n",
  "sourcePath": "/Users/manas/Desktop/Learning/projects/RunChain/RunApp/contracts/Rewards.sol",
  "compiler": {
    "name": "solc",
    "version": "0.8.19+commit.7dd6d404.Emscripten.clang"
  },
  "schemaVersion": "3.4.16",
  "updatedAt": "2025-04-22T18:27:57.823Z",
  "devdoc": {
    "details": "Allows users to redeem points for ETH rewards",
    "kind": "dev",
    "methods": {
      "getContractBalance()": {
        "details": "Get contract's ETH balance"
      },
      "redeemForEth(uint256)": {
        "details": "Redeems ETH based on points value",
        "params": {
          "pointsAmount": "The amount in ETH to redeem (will convert to appropriate points)"
        }
      },
      "transferOwnership(address)": {
        "details": "Transfer ownership of the contract"
      },
      "withdraw(uint256)": {
        "details": "Allow the owner to withdraw ETH from contract"
      }
    },
    "title": "RunChainRewards",
    "version": 1
  },
  "userdoc": {
    "kind": "user",
    "methods": {},
    "version": 1
  }
}